:100000000C942A000C9447000C9447000C94470071
:100010000C947C0D0C94530D0C94130D0C94EA0C61
:100020000C94C10C0C94980C0C94420C0C94190C6C
:100030000C9447000C9447000C9447000C94470024
:100040000C9449000C9447000C9447000C94470012
:100050000C94470011241FBECFE5D8E0DEBFCDBF12
:1000600011E0A0E6B0E0EAE5FFE102C005900D92E4
:10007000A236B107D9F721E0A2E6B1E001C01D9296
:10008000A637B207E1F70E946D050C94AB0F0C94F4
:1000900000001F920F920FB60F9211242F933F93DF
:1000A0004F935F936F937F938F939F93AF93BF9380
:1000B000EF93FF93E0916401F0916501309751F067
:1000C00085B190E0909363018093620182E0809318
:1000D00060000995FF91EF91BF91AF919F918F9132
:1000E0007F916F915F914F913F912F910F900FBE34
:1000F0000F901F90189541E0FC01618180810E9462
:100100009002089541E0FC01618180810E948B038F
:10011000089540E0FC01618180810E948B03089575
:1001200040E062E083E00E948B0382E08A95F1F771
:1001300000C041E062E083E00E948B0382E08A9588
:10014000F1F700C040E062E083E00E948B03089575
:10015000CF93C82F40E060E083E00E948B0340E033
:1001600061E083E00E948B034C2F441F4427441F0F
:1001700067E083E00E948B03C6FB442740F966E0FA
:1001800083E00E948B03C5FB442740F965E083E0D0
:100190000E948B03C4FB442740F964E083E00E9483
:1001A0008B030E949000C3FB442740F967E083E083
:1001B0000E948B03C2FB442740F966E083E00E9463
:1001C0008B03C1FB442740F965E083E00E948B0369
:1001D0004C2F417064E083E00E948B030E949000EA
:1001E000CF910895CF93C82F41E060E083E00E9453
:1001F0008B0340E061E083E00E948B034C2F441F9F
:100200004427441F67E083E00E948B03C6FB44271A
:1002100040F966E083E00E948B03C5FB442740F968
:1002200065E083E00E948B03C4FB442740F964E04F
:1002300083E00E948B030E949000C3FB442740F997
:1002400067E083E00E948B03C2FB442740F966E02D
:1002500083E00E948B03C1FB442740F965E083E003
:100260000E948B034C2F417064E083E00E948B035B
:100270000E949000CF91089541E060E083E00E94E9
:10028000900241E061E083E00E94900241E062E080
:1002900083E00E94900241E067E083E00E949002C8
:1002A00041E066E083E00E94900241E065E083E087
:1002B0000E94900241E064E083E00E9490022FEFF0
:1002C00089EF90E0215080409040E1F700C00000AD
:1002D00082E00E94A80025E82A95F1F7000088E254
:1002E0000E94A80085E88A95F1F700008CE00E9442
:1002F000A80095E89A95F1F7000081E00E94A80017
:100300008FE697E10197F1F700C0000008951F9371
:10031000CF93DF93EC018881882351F010E00E9495
:10032000F2001F5FFE01E10FF11D80818111F7CF07
:10033000DF91CF911F910895611108C080580E94EC
:10034000A80085E88A95F1F700000895613039F436
:1003500080540E94A80085E88A95F1F7000008956E
:100360000E94F200089580E80E94A80081E00E94A7
:10037000A8008FE891E00197F1F700C00000089510
:100380001F93CF93DF93EC0141E0698188810E9444
:10039000900241E06A8188810E949002182F888132
:1003A000823041F48981833019F08A81833019F5D4
:1003B0000E94020C88818430F1F48981873019F021
:1003C0008A81873029F40E943C0D8881843099F419
:1003D0008981853019F08A81853029F40E946B0C5F
:1003E0008881843041F48981843019F08A81843095
:1003F00011F40E946B0C812FDF91CF911F91089512
:100400001F93CF93DF93EC0141E0698188810E94C3
:100410008B0340E06A8188810E948B03182F8881BA
:10042000823041F48981833019F08A81833019F553
:100430000E94A50D88818430F1F48981873019F0FC
:100440008A81873029F40E94BA0D8881843099F41A
:100450008981853019F08A81853029F40E94AC0D9C
:100460008881843041F48981843019F08A81843014
:1004700011F40E94B30D812FDF91CF911F91089548
:100480001F93CF93DF93EC0141E06A8188810E9442
:100490008B0340E0698188810E948B03182F88813B
:1004A000823041F48981833019F08A81833019F5D3
:1004B0000E94A50D88818430F1F48981873019F07C
:1004C0008A81873029F40E94BA0D8881843099F49A
:1004D0008981853019F08A81853029F40E94AC0D1C
:1004E0008881843041F48981843019F08A81843094
:1004F00011F40E94B30D812FDF91CF911F910895C8
:10050000CF93DF93EC0140E06A8188810E948B03E6
:1005100040E0698188810E948B03DF91CF9108952B
:10052000683008F0EEC0413009F03FC08230B1F0D1
:1005300018F4813031F0E7C08330E9F0843041F1C4
:10054000E2C04AB321E030E0C90102C0880F991F20
:100550006A95E2F7842B8ABB80E0089547B321E0D7
:1005600030E0C90102C0880F991F6A95E2F7842B19
:1005700087BB80E0089544B321E030E0C90102C0A8
:10058000880F991F6A95E2F7842B84BB80E0089559
:1005900041B321E030E0C90102C0880F991F6A957C
:1005A000E2F7842B81BB80E00895423009F053C00C
:1005B0008230D9F018F4813031F0A7C0833039F19E
:1005C0008430B9F1A2C04AB321E030E0C90102C0D1
:1005D000880F991F6A95E2F78095982F94239ABB0C
:1005E0009BB389238BBB80E0089547B321E030E0C3
:1005F000C90102C0880F991F6A95E2F78095982F6C
:10060000942397BB98B3892388BB80E0089544B3B3
:1006100021E030E0C90102C0880F991F6A95E2F716
:100620008095982F942394BB95B3892385BB80E054
:10063000089541B321E030E0C90102C0880F991F3D
:100640006A95E2F78095982F942391BB92B3892302
:1006500082BB80E00895433009F059C08230D9F060
:1006600018F4813031F055C0833039F18430B9F15C
:1006700050C04AB321E030E0C90102C0880F991F81
:100680006A95E2F7982F909594239ABB9BB3892B98
:100690008BBB80E0089547B321E030E0C90102C080
:1006A000880F991F6A95E2F7982F9095942397BB2E
:1006B00098B3892B88BB80E0089544B321E030E0F3
:1006C000C90102C0880F991F6A95E2F7982F90958B
:1006D000942394BB95B3892B85BB80E0089541B3E7
:1006E00021E030E0C90102C0880F991F6A95E2F746
:1006F000982F9095942391BB92B3892B82BB80E075
:10070000089581E0089581E0089580E0089581E0F2
:10071000089580E00895683008F08FC0413009F0F6
:1007200043C08230B9F018F4813031F088C0833092
:10073000F9F0843059F183C02BB381E090E0AC0133
:1007400002C0440F551F6A95E2F7BA01622B6BBBDA
:1007500080E0089528B381E090E0AC0102C0440F2E
:10076000551F6A95E2F7BA01622B68BB80E00895D5
:1007700025B381E090E0AC0102C0440F551F6A959B
:10078000E2F7BA01622B65BB80E0089522B381E0F5
:1007900090E0AC0102C0440F551F6A95E2F7BA0120
:1007A000622B62BB80E0089541114BC08230C1F0E2
:1007B00018F4813031F047C0833009F1843071F191
:1007C00042C02BB381E090E0AC0102C0440F551F42
:1007D0006A95E2F7BA01609562236BBB80E00895E9
:1007E00028B381E090E0AC0102C0440F551F6A9528
:1007F000E2F7BA016095622368BB80E0089525B3F3
:1008000081E090E0AC0102C0440F551F6A95E2F709
:10081000BA016095622365BB80E0089522B381E050
:1008200090E0AC0102C0440F551F6A95E2F7BA018F
:100830006095622362BB80E0089581E0089581E0C5
:10084000089581E0089581E00895683008F064C05B
:10085000823001F118F4813039F060C0833081F1C9
:10086000843009F443C05AC089B321E030E0062E39
:1008700002C0220F331F0A94E2F790E082239323F1
:100880009C0102C0359527956A95E2F7FA0120830D
:1008900080E0089586B321E030E0062E02C0220FEA
:1008A000331F0A94E2F790E0822393239C0102C055
:1008B000359527956A95E2F7FA01208380E008953F
:1008C00083B321E030E0062E02C0220F331F0A94CA
:1008D000E2F790E0822393239C0102C0359527958F
:1008E0006A95E2F7FA01208380E0089580B321E061
:1008F00030E0062E02C0220F331F0A94E2F790E088
:10090000822393239C0102C0359527956A95E2F7CF
:10091000FA01208380E0089581E0089581E0089540
:1009200043E064E082E00E94900243E065E082E000
:100930000E94900243E066E082E00E94900243E061
:1009400067E082E00E94900241E060E082E00E9465
:10095000900241E061E082E00E94900241E062E0AA
:1009600082E00E94900241E063E082E00E949002F7
:1009700041E060E082E00E948B0341E061E082E0C0
:100980000E948B0341E062E082E00E948B0341E021
:1009900063E082E00E948B0308952F923F924F9272
:1009A0005F926F927F928F929F92AF92BF92CF92FF
:1009B000DF92EF92FF920F931F93CF93DF93CDB708
:1009C000DEB76B970FB6F894DEBF0FBECDBF9B8F1F
:1009D0008A8F8FEFEA8DFB8D808380E1E1E6F0E086
:1009E000DE01119601900D928A95E1F7198A81E056
:1009F0008A8B92E09B8B93E09C8B94E09D8B95E09F
:100A00009E8B96E09F8B97E0988F898F4E01F1E146
:100A10008F0E911CC12CD12C412C512C3601F4018C
:100A200021904F0140E0622D82E00E948B03CE01B5
:100A300045967C01042D152DF70131907F01AE0103
:100A4000475E5F4F632D82E00E942504898D8111EE
:100A500019C0F801EE0FFF1FEE0FFF1F6E0E7F1E75
:100A6000E1E0F0E0EC0FFD1FE60DF71D8081EA8D5F
:100A7000FB8D8083AE01475E5F4F632D82E00E9455
:100A8000250405C00F5F1F4F04301105A9F641E092
:100A9000622D82E00E948B03FFEFCF1ADF0A84E011
:100AA000C816D10409F0BACF6B960FB6F894DEBF22
:100AB0000FBECDBFDF91CF911F910F91FF90EF90AF
:100AC000DF90CF90BF90AF909F908F907F906F906E
:100AD0005F904F903F902F900895CF93DF93CDB7C5
:100AE000DEB761970FB6F894DEBF0FBECDBF84E0CE
:100AF000898396E09A8397E09B8396E0E1E7F0E0B4
:100B0000DE01149601900D929A95E1F78A8795E09F
:100B10009B878C878D871E861F86198A188A0E945C
:100B20003C010E949004CE0101960E94C001CE01BA
:100B300004960E947309CE010A960E942809CE01EC
:100B40000C960E947B000E94A306BE01645F7F4F4B
:100B5000CE010E960E9460088E850E94D9068E8571
:100B60008B3741F0893141F08B3D31F0843609F00B
:100B7000CFC002C00E943C078F8581110AC0BE0110
:100B8000645F7F4FCE010F960E9419088F858823DE
:100B9000B1F3813309F4CEC09E85993109F04FC07D
:100BA00061E081E00E9459071F86BE01645F7F4FAC
:100BB000CE010F960E9419088F858823B1F38133E7
:100BC000B1F51F8662E081E00E9459078F8581118F
:100BD0000AC0BE01645F7F4FCE010F960E941908C4
:100BE0008F858823B1F3813309F08DC01F8663E0C0
:100BF00081E00E9459078F8581110AC0BE01645FA0
:100C00007F4FCE010F960E9419088F858823B1F37C
:100C1000813319F0823331F076C0CE0101960E9403
:100C2000000271C0CE0101960E9440026CC0823366
:100C300009F069C0CE0101960E94800264C082332F
:100C400011F09B3DC1F41F8661E083E00E945907CB
:100C5000BE01645F7F4FCE0140960E94C70868893D
:100C6000CE010A960E944A098FE39CE90197F1F7A9
:100C700000C0000048C0833319F0943609F043C027
:100C80001F8661E082E00E9459078F8581110AC0AA
:100C9000BE01645F7F4FCE010F960E9419088F85B9
:100CA0008823B1F3813341F51F8662E082E00E9420
:100CB00059078F85811144C0BE01645F7F4FCE010B
:100CC0000F960E9419088F858823B1F38133D9F4D8
:100CD0001F8663E082E00E945907BE01645F7F4F78
:100CE000CE0140960E94C7084889598962E0CE012A
:100CF00004960E948D0907C0823329F41F86CE0115
:100D000004960E94940B1E861F86198A188A1BCF90
:100D100087E790E00E9487019FEF29E688E19150E4
:100D200020408040E1F700C000001E861F86198A1F
:100D3000188A09CF61E081E00E9459071F8635CFEC
:100D4000813309F7C5CF0E94B3018FE19EE401977B
:100D5000F1F700C0000060E080E00E949C0180E8A4
:100D600090E00E94870161E081E00E949C0181E99E
:100D700090E00E9487019FEF24E38CE09150204097
:100D80008040E1F700C000000E94B3018FE19EE4C3
:100D90000197F1F700C0000060E080E00E949C0134
:100DA0008FE990E00E94870161E080E00E949C0151
:100DB0000895CF93C82F0E94B3018FE19EE401975D
:100DC000F1F700C00000C436E1F118F4C931B9F000
:100DD00048C0CB3719F0CB3D19F143C060E080E04B
:100DE0000E949C018FEA90E00E94870161E080E010
:100DF0000E949C018BEB90E00E94870132C060E072
:100E000080E00E949C018FEA90E00E94870161E0EF
:100E100080E00E949C0180EC90E00E94870121C04C
:100E200060E080E00E949C018FEA90E00E948701D0
:100E300061E080E00E949C0187EC90E00E948701C5
:100E400010C060E080E00E949C018FEA90E00E9468
:100E5000870161E080E00E949C018DEC90E00E949F
:100E600087019FEF29E688E1915020408040E1F71B
:100E700000C00000CF91089560E080E00E949C01D6
:100E800085ED90E00E9487018FEC97E00197F1F7E4
:100E900000C0000061E080E00E949C0181EE90E0D3
:100EA0000E9487018FEC97E00197F1F700C00000E6
:100EB0000895813009F052C06230F1F06330A9F139
:100EC000613009F0B5C00E94B3018FE19EE4019743
:100ED000F1F700C0000060E080E00E949C0182EF1A
:100EE00090E00E94870161E080E00E949C018DEF0C
:100EF00090E00E94870108950E94B3018FE19EE473
:100F00000197F1F700C0000060E080E00E949C01C2
:100F100089E091E00E94870161E080E00E949C01ED
:100F200086E191E00E94870108950E94B3018FE15C
:100F30009EE40197F1F700C0000060E080E00E94AD
:100F40009C0184E291E00E94870161E080E00E94C0
:100F50009C018EE291E00E94870108958330C1F4E4
:100F6000613009F065C00E94B3018FE19EE40197F2
:100F7000F1F700C0000060E080E00E949C018AE37D
:100F800091E00E94870161E080E00E949C01089549
:100F9000823009F04DC06230F1F06330A9F1613068
:100FA00009F046C00E94B3018FE19EE40197F1F77A
:100FB00000C0000060E080E00E949C0182EF90E0B1
:100FC0000E94870161E080E00E949C018DEF90E02B
:100FD0000E94870108950E94B3018FE19EE401976A
:100FE000F1F700C0000060E080E00E949C0187E40F
:100FF00091E00E94870161E080E00E949C018DE405
:1010000091E00E94870108950E94B3018FE19EE460
:101010000197F1F700C0000060E080E00E949C01B1
:1010200084E591E00E94870161E080E00E949C01DC
:101030000895EF92FF920F931F93CF93DF931F9228
:10104000CDB7DEB77C018B018FEF8983CE0101968E
:101050000E94CD042FE788E391E02150804090402A
:10106000E1F700C0000089818F3FF9F08F3421F053
:10107000F70180838F3FC9F0CE0101960E94CD0415
:10108000FFE728E381E0F15020408040E1F700C015
:101090000000C8010E948200EFE1FEE43197F1F701
:1010A00000C0000089818F3F39F7C8010E94890084
:1010B0000F90DF91CF911F910F91FF90EF900895C6
:1010C000EF92FF920F931F93CF93DF931F92CDB7B1
:1010D000DEB77C018B018FEF8983CE0101960E94E0
:1010E000CD042FE788E391E0215080409040E1F764
:1010F00000C0000089818F3FF1F18F3499F0805357
:10110000F7019081990F292F220F220F920F980F2C
:1011100090838AE20E94B00189818F3419F08F3F59
:1011200089F429C0C8010E948200FFEF21EE84E00B
:10113000F15020408040E1F700C00000C8010E944B
:1011400089001DC0CE0101960E94CD049FE7E8E30F
:10115000F1E09150E040F040E1F700C00000C8012C
:101160000E9482008FE19EE40197F1F700C0000029
:1011700089818F3F39F7C8010E948900AECF0F9057
:10118000DF91CF911F910F91FF90EF900895EF9213
:10119000FF920F931F93CF93DF931F92CDB7DEB7CC
:1011A0007C018B01FC0111821082CE0101960E940C
:1011B000CD04FFE728E381E0F15020408040E1F7D3
:1011C00000C0000089818F3FB9F18F34C9F10E94BE
:1011D000B0016981862F90E0C097F70120813181AD
:1011E000A901440F551F220F331F220F331F220F57
:1011F000331F240F351F280F391F318320836F348D
:10120000F9F06F3FC9F0CE0101960E94CD04FFE7CF
:1012100028E381E0F15020408040E1F700C0000069
:10122000C8010E948200EFE1FEE43197F1F700C0AF
:10123000000089818F3F39F7C8010E948900B5CF2E
:101240000F90DF91CF911F910F91FF90EF90089534
:101250001F93CF93DF93EC0141E0698188810E9465
:101260009002182F0E946B0C8881843071F4898160
:10127000843029F480E29EE40E948F0C06C0853001
:1012800021F480E29EE40E948F0C812FDF91CF91A8
:101290001F910895CF93DF93EC0188818430F9F496
:1012A00070E080E090E00E94BC0E26E237EC41EB5B
:1012B00050E40E94480F20E030E04AE754E40E94E6
:1012C000C20D0E948E0E2981243021F4CB010E9490
:1012D000950C05C0253019F4CB010E94920C80E0DA
:1012E000DF91CF910895CF93DF93EC0141E06981C5
:1012F00088810E94900241E06A8188810E94900268
:1013000041E06B8188810E94900241E06C8188817C
:101310000E949002DF91CF910895EF92FF920F9378
:101320001F93CF93DF93EC01162F8D81882321F03B
:10133000813009F4F7C0ECC1BA0180E090E00E946E
:10134000BA0E2AEE34E044E35FE30E94260E0E94C8
:101350008E0E7B01123009F071C000E010E040E019
:10136000698188810E948B0341E06A8188810E94A3
:101370008B0341E06B8188810E948B0341E06C818B
:1013800088810E948B038FE19EE40197F1F700C0F2
:10139000000041E0698188810E948B0340E06A81FE
:1013A00088810E948B0341E06B8188810E948B03BE
:1013B00041E06C8188810E948B03EFE1FEE431976C
:1013C000F1F700C0000041E0698188810E948B0331
:1013D00041E06A8188810E948B0340E06B818881B3
:1013E0000E948B0341E06C8188810E948B038FE116
:1013F0009EE40197F1F700C0000041E06981888117
:101400000E948B0341E06A8188810E948B0341E046
:101410006B8188810E948B0340E06C8188810E94EF
:101420008B03EFE1FEE43197F1F700C000000F5F9E
:101430001F4FE016F10608F092CF6FC1133009F08C
:1014400069C100E010E041E0698188810E948B035E
:1014500041E06A8188810E948B0341E06B81888131
:101460000E948B0340E06C8188810E948B038FE196
:101470009EE40197F1F700C0000041E06981888196
:101480000E948B0341E06A8188810E948B0340E0C7
:101490006B8188810E948B0341E06C8188810E946E
:1014A0008B03EFE1FEE43197F1F700C0000041E06B
:1014B000698188810E948B0340E06A8188810E9453
:1014C0008B0341E06B8188810E948B0341E06C813A
:1014D00088810E948B038FE19EE40197F1F700C0A1
:1014E000000040E0698188810E948B0341E06A81AD
:1014F00088810E948B0341E06B8188810E948B036D
:1015000041E06C8188810E948B03EFE1FEE431971A
:10151000F1F700C000000F5F1F4FE016F10608F062
:1015200092CFFBC0BA0180E090E00E94BA0E2AEE92
:1015300034E044EB5FE30E94260E0E948E0E7B0196
:10154000123009F071C000E010E040E0698188814C
:101550000E948B0341E06A8188810E948B0341E0F5
:101560006B8188810E948B0341E06C8188810E949D
:101570008B038FE19EE40197F1F700C0000041E08A
:10158000698188810E948B0340E06A8188810E9482
:101590008B0341E06B8188810E948B0341E06C8169
:1015A00088810E948B03EFE1FEE43197F1F700C0E0
:1015B000000041E0698188810E948B0341E06A81DB
:1015C00088810E948B0340E06B8188810E948B039D
:1015D00041E06C8188810E948B038FE19EE401973A
:1015E000F1F700C0000041E0698188810E948B030F
:1015F00041E06A8188810E948B0341E06B81888190
:101600000E948B0340E06C8188810E948B03EFE194
:10161000FEE43197F1F700C000000F5F1F4FE016A6
:10162000F10608F092CF79C0133009F075C000E0E0
:1016300010E041E0698188810E948B0341E06A816A
:1016400088810E948B0341E06B8188810E948B031B
:1016500040E06C8188810E948B038FE19EE40197BA
:10166000F1F700C0000041E0698188810E948B038E
:1016700041E06A8188810E948B0340E06B81888110
:101680000E948B0341E06C8188810E948B03EFE113
:10169000FEE43197F1F700C0000041E069818881E4
:1016A0000E948B0340E06A8188810E948B0341E0A5
:1016B0006B8188810E948B0341E06C8188810E944C
:1016C0008B038FE19EE40197F1F700C0000040E03A
:1016D000698188810E948B0341E06A8188810E9430
:1016E0008B0341E06B8188810E948B0341E06C8118
:1016F00088810E948B03EFE1FEE43197F1F700C08F
:1017000000000F5F1F4FE016F10608F092CF05C0F2
:1017100081E003C080E001C080E0DF91CF911F91A4
:101720000F91FF90EF900895CF93DF93EC0141E08C
:10173000698188810E948B0341E06A8188810E94CF
:101740008B0341E06B8188810E948B0341E06C81B7
:1017500088810E948B038FE19EE40197F1F700C01E
:10176000000041E0698188810E948B0341E06A8129
:1017700088810E948B0341E06B8188810E948B03EA
:1017800041E06C8188810E948B03EFE1FEE4319798
:10179000F1F700C0000041E0698188810E948B035D
:1017A00041E06A8188810E948B0341E06B818881DE
:1017B0000E948B0341E06C8188810E948B038FE142
:1017C0009EE40197F1F700C0000041E06981888143
:1017D0000E948B0341E06A8188810E948B0341E073
:1017E0006B8188810E948B0341E06C8188810E941B
:1017F0008B03EFE1FEE43197F1F700C00000DF91C9
:10180000CF91089583B7886083BF83B7806483BF17
:1018100083B7806283BF83B78F7E83BFBB9A83B752
:101820008B7F83BF83B7826083BF83B78E7F83BF85
:1018300008951F920F920FB60F9211242F933F938A
:101840004F935F936F937F938F939F93AF93BF93C8
:10185000EF93FF93E0917201F0917301309709F0DB
:101860000995FF91EF91BF91AF919F918F917F91DA
:101870006F915F914F913F912F910F900FBE0F90FD
:101880001F9018951F920F920FB60F9211242F934D
:101890003F934F935F936F937F938F939F93AF93F8
:1018A000BF93EF93FF93E0917401F091750130972E
:1018B00009F00995FF91EF91BF91AF919F918F91A1
:1018C0007F916F915F914F913F912F910F900FBE3C
:1018D0000F901F9018958FB58E7F8FBD8FB582604A
:1018E0008FBD8EB588608EBD8EB580618EBD8FB583
:1018F00080688FBD8FB58F7B8FBD8D9A8FB58F7DA3
:101900008FBD8FB58F7E8FBD8C9A8EB58B7F8EBD30
:101910008EB582608EBD8EB58E7F8EBD089597BDCB
:1019200086BD08959BBD8ABD089599BD88BD089563
:101930001F920F920FB60F9211242F933F934F9344
:101940005F936F937F938F939F93AF93BF93EF9327
:10195000FF93E0917001F0917101309709F00995C2
:10196000FF91EF91BF91AF919F918F917F916F9177
:101970005F914F913F912F910F900FBE0F901F904D
:1019800018951F920F920FB60F9211242F933F9329
:101990004F935F936F937F938F939F93AF93BF9377
:1019A000EF93FF93E0916C01F0916D01309709F096
:1019B0000995FF91EF91BF91AF919F918F917F9189
:1019C0006F915F914F913F912F910F900FBE0F90AC
:1019D0001F9018951F920F920FB60F9211242F93FC
:1019E0003F934F935F936F937F938F939F93AF93A7
:1019F000BF93EF93FF93E0916E01F0916F013097E9
:101A000009F00995FF91EF91BF91AF919F918F914F
:101A10007F916F915F914F913F912F910F900FBEEA
:101A20000F901F9018951F920F920FB60F921124CE
:101A30002F933F934F935F936F937F938F939F93D6
:101A4000AF93BF93EF93FF93E0916A01F0916B0125
:101A5000309709F00995FF91EF91BF91AF919F9158
:101A60008F917F916F915F914F913F912F910F9047
:101A70000FBE0F901F90189585B5886085BD85B500
:101A8000806485BD85B5806285BD85B58F7E85BD49
:101A90008F9A85B58B7F85BD85B5826085BD85B5FF
:101AA0008E7F85BD08951F920F920FB60F9211245D
:101AB0002F933F934F935F936F937F938F939F9356
:101AC000AF93BF93EF93FF93E0916601F0916701AD
:101AD000309709F00995FF91EF91BF91AF919F91D8
:101AE0008F917F916F915F914F913F912F910F90C7
:101AF0000FBE0F901F9018951F920F920FB60F9266
:101B000011242F933F934F935F936F937F938F9302
:101B10009F93AF93BF93EF93FF93E0916801F09190
:101B20006901309709F00995FF91EF91BF91AF914D
:101B30009F918F917F916F915F914F913F912F91E5
:101B40000F900FBE0F901F90189583B78F7D83BFA6
:101B500083B78F7E83BF08958FB58F778FBD8FB585
:101B60008F7B8FBD08958FB58F7D8FBD8FB58F7E95
:101B70008FBD089585B58F7D85BD85B58F7E85BD6B
:101B800008955058BB27AA270ED048C139D130F04C
:101B90003ED120F031F49F3F11F41EF42EC10EF41B
:101BA000E095E7FB24C1E92F4AD180F3BA17620719
:101BB00073078407950718F071F49EF562C10EF45F
:101BC000E0950B2EBA2FA02D0B01B90190010C014D
:101BD000CA01A0011124FF27591B99F0593F50F465
:101BE000503E68F11A16F040A22F232F342F4427BD
:101BF000585FF3CF469537952795A795F0405395B5
:101C0000C9F77EF41F16BA0B620B730B840BBAF084
:101C10009150A1F0FF0FBB1F661F771F881FC2F7EF
:101C20000EC0BA0F621F731F841F48F48795779503
:101C30006795B795F7959E3F08F0B3CF9395880FBA
:101C400008F09927EE0F9795879508950CD0E6C078
:101C5000DED040F0D5D030F021F45F3F19F0C7C09E
:101C6000511110C1CAC0EBD098F39923C9F3552381
:101C7000B1F3951B550BBB27AA276217730784077F
:101C800038F09F5F5F4F220F331F441FAA1FA9F335
:101C900033D00E2E3AF0E0E830D091505040E69527
:101CA000001CCAF729D0FE2F27D0660F771F881F88
:101CB000BB1F261737074807AB07B0E809F0BB0B77
:101CC000802DBF01FF2793585F4F2AF09E3F51059B
:101CD00068F08DC0D7C05F3FECF3983EDCF386958B
:101CE00077956795B795F7959F5FC9F7880F911D11
:101CF0009695879597F90895E1E0660F771F881FFD
:101D0000BB1F621773078407BA0720F0621B730BAF
:101D1000840BBA0BEE1F88F7E095089598D088F0F1
:101D20009F5790F0B92F9927B751A0F0D1F0660FC7
:101D3000771F881F991F1AF0BA95C9F712C0B130E2
:101D400081F09FD0B1E008959CC0672F782F88273D
:101D5000B85F39F0B93FCCF3869577956795B39521
:101D6000D9F73EF490958095709561957F4F8F4F90
:101D70009F4F0895E89409C097FB3EF49095809595
:101D8000709561957F4F8F4F9F4F9923A9F0F92F41
:101D900096E9BB279395F695879577956795B795BF
:101DA000F111F8CFFAF4BB0F11F460FF1BC06F5FA5
:101DB0007F4F8F4F9F4F16C0882311F096E911C0B7
:101DC000772321F09EE8872F762F05C0662371F0D8
:101DD00096E8862F70E060E02AF09A95660F771FEC
:101DE000881FDAF7880F9695879597F9089597F9E0
:101DF0009F6780E870E060E008959FEF80EC0895B1
:101E000000240A94161617061806090608950024D9
:101E10000A9412161306140605060895092E039453
:101E2000000C11F4882352F0BB0F40F4BF2B11F4C7
:101E300060FF04C06F5F7F4F8F4F9F4F089557FD26
:101E40009058440F551F59F05F3F71F04795880F28
:101E500097FB991F61F09F3F79F0879508951216BF
:101E600013061406551FF2CF4695F1DF08C016166B
:101E700017061806991FF1CF86957105610508941C
:101E80000895E894BB2766277727CB0197F9089533
:101E90000BD0C4CFB5DF28F0BADF18F0952309F0D6
:101EA000A6CFABCF1124EECFCADFA0F3959FD1F31D
:101EB000950F50E0551F629FF001729FBB27F00DF8
:101EC000B11D639FAA27F00DB11DAA1F649F66274D
:101ED000B00DA11D661F829F2227B00DA11D621F9C
:101EE000739FB00DA11D621F839FA00D611D221F56
:101EF000749F3327A00D611D231F849F600D211D3A
:101F0000822F762F6A2F11249F5750408AF0E1F0DC
:101F100088234AF0EE0FFF1FBB1F661F771F881F25
:101F200091505040A9F79E3F510570F060CFAACF65
:101F30005F3FECF3983EDCF3869577956795B79510
:101F4000F795E7959F5FC1F7FE2B880F911D96953A
:0A1F5000879597F90895F894FFCFE4
:101F5A00023738392F3435362A3132332D4F303D56
:101F6A002B0400010203004552524F5220494400FB
:101F7A0057656C636F6D6520746F204D6F746F7257
:101F8A0000626F61726420636F6E74726F6C0045D9
:101F9A006E74657220796F75722049443A20005731
:101FAA00656C636F6D65204D723A00426164720020
:101FBA004D61727A6F6B004D61686572004465739A
:101FCA006F756B79004D6F746F723A2031294443F3
:101FDA00003229536572766F203329537465707005
:101FEA0072003129205475726E204F4E003229201A
:101FFA005475726E204F464600312946756C6C2026
:10200A005370656564003229506F74202033294C5F
:10201A006D333500446972656374696F6E003129E6
:10202A0043572020322943435700536572766F2065
:10203A00616E676C653A00312920435700322920C6
:10204A00434357005374657070657220416E676C24
:02205A0065001F
:00000001FF
