S019000041746D65676133324120647269766572732E73726563F7
S11300000C942A000C945F020C9488020C94B102A4
S11300100C9455040C942C040C94EC030C94C3031E
S11300200C949A030C9471030C9442030C941903DA
S11300300C9447000C9447000C9447000C94470020
S11300400C9449000C9447000C9447000C9447000E
S11300500C94470011241FBECFE5D8E0DEBFCDBF0E
S113006010E0A0E6B0E0E4E3F9E002C005900D92F0
S1130070A236B107D9F720E0A2E6B0E001C01D9294
S1130080AC37B207E1F70E94DA020C9498040C949E
S113009000001F920F920FB60F9211242F933F93DB
S11300A04F935F936F937F938F939F93AF93BF937C
S11300B0EF93FF93E0916400F0916500309751F065
S11300C085B190E0909363008093620082E0809316
S11300D060000995FF91EF91BF91AF919F918F912E
S11300E07F916F915F914F913F912F910F900FBE30
S11300F00F901F9018951F93CF93DF93EC0141E06D
S1130100698188810E94CA0041E06A8188810E94D5
S1130110CA00182F9881923049F48981833019F0EC
S11301208A81833069F40E9402030AC0943041F446
S11301308981873019F08A81873011F40E9415046F
S1130140812FDF91CF911F910895CF93DF93EC011D
S1130150423069F4462F50E0698188810E947E0410
S113016040E06A8188810E94C50180E010C041306E
S113017069F4462F50E06A8188810E947E0440E041
S1130180698188810E94C50180E001C081E0DF911E
S1130190CF910895683008F0EEC0413009F03FC0B7
S11301A08230B1F018F4813031F0E7C08330E9F0E7
S11301B0843041F1E2C04AB321E030E0C90102C019
S11301C0880F991F6A95E2F7842B8ABB80E0089513
S11301D047B321E030E0C90102C0880F991F6A9536
S11301E0E2F7842B87BB80E0089544B321E030E03C
S11301F0C90102C0880F991F6A95E2F7842B84BB5A
S113020080E0089541B321E030E0C90102C0880FC5
S1130210991F6A95E2F7842B81BB80E008954230F0
S113022009F053C08230D9F018F4813031F0A7C0FE
S1130230833039F18430B9F1A2C04AB321E030E00F
S1130240C90102C0880F991F6A95E2F78095982F1B
S113025094239ABB9BB389238BBB80E0089547B357
S113026021E030E0C90102C0880F991F6A95E2F7C6
S11302708095982F942397BB98B3892388BB80E0FB
S1130280089544B321E030E0C90102C0880F991FEA
S11302906A95E2F78095982F942394BB95B38923AC
S11302A085BB80E0089541B321E030E0C90102C07C
S11302B0880F991F6A95E2F78095982F942391BB34
S11302C092B3892382BB80E00895433009F059C07A
S11302D08230D9F018F4813031F055C0833039F1CF
S11302E08430B9F150C04AB321E030E0C90102C002
S11302F0880F991F6A95E2F7982F909594239ABBDB
S11303009BB3892B8BBB80E0089547B321E030E099
S1130310C90102C0880F991F6A95E2F7982F90953A
S1130320942397BB98B3892B88BB80E0089544B38A
S113033021E030E0C90102C0880F991F6A95E2F7F5
S1130340982F9095942394BB95B3892B85BB80E01B
S1130350089541B321E030E0C90102C0880F991F1C
S11303606A95E2F7982F9095942391BB92B3892BC9
S113037082BB80E0089581E0089581E0089580E0E3
S1130380089581E0089580E00895683008F08FC0F2
S1130390413009F043C08230B9F018F4813031F0B3
S11303A088C08330F9F0843059F183C02BB381E0E5
S11303B090E0AC0102C0440F551F6A95E2F7BA0100
S11303C0622B6BBB80E0089528B381E090E0AC0120
S11303D002C0440F551F6A95E2F7BA01622B68BB4D
S11303E080E0089525B381E090E0AC0102C0440FA1
S11303F0551F6A95E2F7BA01622B65BB80E0089548
S113040022B381E090E0AC0102C0440F551F6A950D
S1130410E2F7BA01622B62BB80E0089541114BC040
S11304208230C1F018F4813031F047C0833009F1D3
S1130430843071F142C02BB381E090E0AC0102C082
S1130440440F551F6A95E2F7BA01609562236BBBAE
S113045080E0089528B381E090E0AC0102C0440F2D
S1130460551F6A95E2F7BA016095622368BB80E084
S1130470089525B381E090E0AC0102C0440F551FFC
S11304806A95E2F7BA016095622365BB80E008953E
S113049022B381E090E0AC0102C0440F551F6A957D
S11304A0E2F7BA016095622362BB80E0089581E0BF
S11304B0089581E0089581E0089581E008951F92F0
S11304C00F920FB60F9211242F933F934F935F9384
S11304D06F937F938F939F93AF93BF93EF93FF9308
S11304E0E0916A00F0916B00309709F00995FF9153
S11304F0EF91BF91AF919F918F917F916F915F9198
S11305004F913F912F910F900FBE0F901F90189510
S11305101F920F920FB60F9211242F933F934F9374
S11305205F936F937F938F939F93AF93BF93EF9357
S1130530FF93E0916800F0916900309709F0099504
S1130540FF91EF91BF91AF919F918F917F916F91A7
S11305505F914F913F912F910F900FBE0F901F907D
S113056018951F920F920FB60F9211242F933F9359
S11305704F935F936F937F938F939F93AF93BF93A7
S1130580EF93FF93E0916600F0916700309709F0D4
S11305900995FF91EF91BF91AF919F918F917F91B9
S11305A06F915F914F913F912F910F900FBE0F90DC
S11305B01F901895CF93DF9300D01F92CDB7DEB76D
S11305C084E0898387E08A8381E08B83CE0101966E
S11305D00E947B000E94150410E000E042E0612FBD
S11305E0CE0101960E94A5002FEF84E39CE02150E8
S11305F080409040E1F700C000001B5F1F3F71F78F
S1130600102FECCF83B7886083BF83B7806483BF28
S113061083B7806283BF83B78F7E83BFBB9A83B760
S11306208B7F83BF83B7826083BF83B78E7F83BF93
S113063008951F920F920FB60F9211242F933F9398
S11306404F935F936F937F938F939F93AF93BF93D6
S1130650EF93FF93E0917800F0917900309709F0DF
S11306600995FF91EF91BF91AF919F918F917F91E8
S11306706F915F914F913F912F910F900FBE0F900B
S11306801F9018951F920F920FB60F9211242F935B
S11306903F934F935F936F937F938F939F93AF9306
S11306A0BF93EF93FF93E0917A00F0917B00309732
S11306B009F00995FF91EF91BF91AF919F918F91AF
S11306C07F916F915F914F913F912F910F900FBE4A
S11306D00F901F9018959BBD8ABD089599BD88BD44
S11306E008951F920F920FB60F9211242F933F93E8
S11306F04F935F936F937F938F939F93AF93BF9326
S1130700EF93FF93E0917600F0917700309709F032
S11307100995FF91EF91BF91AF919F918F917F9137
S11307206F915F914F913F912F910F900FBE0F905A
S11307301F9018951F920F920FB60F9211242F93AA
S11307403F934F935F936F937F938F939F93AF9355
S1130750BF93EF93FF93E0917200F0917300309791
S113076009F00995FF91EF91BF91AF919F918F91FE
S11307707F916F915F914F913F912F910F900FBE99
S11307800F901F9018951F920F920FB60F9211247D
S11307902F933F934F935F936F937F938F939F9385
S11307A0AF93BF93EF93FF93E0917400F0917500C2
S11307B0309709F00995FF91EF91BF91AF919F9107
S11307C08F917F916F915F914F913F912F910F90F6
S11307D00FBE0F901F9018951F920F920FB60F9295
S11307E011242F933F934F935F936F937F938F9332
S11307F09F93AF93BF93EF93FF93E0917000F091B9
S11308007100309709F00995FF91EF91BF91AF9175
S11308109F918F917F916F915F914F913F912F9114
S11308200F900FBE0F901F90189585B5886085BDF9
S113083085B5806485BD85B5806285BD85B58F7EAF
S113084085BD8F9A85B58B7F85BD85B5826085BD55
S113085085B58E7F85BD08951F920F920FB60F92B6
S113086011242F933F934F935F936F937F938F93B1
S11308709F93AF93BF93EF93FF93E0916C00F0913C
S11308806D00309709F00995FF91EF91BF91AF91F9
S11308909F918F917F916F915F914F913F912F9194
S11308A00F900FBE0F901F9018951F920F920FB6C6
S11308B00F9211242F933F934F935F936F937F93E2
S11308C08F939F93AF93BF93EF93FF93E0916E0049
S11308D0F0916F00309709F00995FF91EF91BF9166
S11308E0AF919F918F917F916F915F914F913F91C4
S11308F02F910F900FBE0F901F901895823021F406
S11309006330A9F44CBF0895843089F4653029F428
S1130910842F952F0E946B030895643029F4842F4B
S1130920952F0E946E030895673009F443BD08951E
S1070930F894FFCF65
S10509340200BB
S9030000FC
